:070CC700D2A1D2A0C2A122BC
:090CA500C2A0C2A1D2A0D2A1227A
:090CAE00C2A0D2A1D2A0C2A12271
:020AD600AD076A
:100AD800E4FCECC39408748094805025C2A07E0086
:100AE8007480A804088006CEA2E713CE13D8F8FFB6
:100AF800EDFBEF5B6003D38001C392A1D2A00C8011
:010B0800D11B
:010B090022C9
:100B9100E4FFFEEEC39408748094805017C2A0D283
:100BA100A030A10DA8067480088002C313D8FC42AE
:040BB100070E80DFCC
:010BB500221D
:100BF100A905120CC7120AD6120C01AF01120AD6AE
:0A0C0100C2A0D2A1D2A020A1FD22C2
:070CCE00C2A0D2A1D2A022B6
:0B0C9A00C2A0C2A1D2A0C2A0D2A12221
:100C0B00AE07AA03120BF1AF02120AD6120C011295
:090C1B000CA57F0A7E00020BB655
:080A8D008D228B238A248925A8
:100A9500120CC7120AD6120C01AF22120AD6120C7A
:100AA50001E4F527E527C39526501CAB230525E56D
:100AB50025AA247002052414F9120800FF120AD68B
:100AC500120C01052780DD120CA57F0A7E00020BA2
:010AD500B66A
:020BD600AA076C
:100BD800120BF1120CAEEA4401FF120AD6120C01F4
:090BE800120B91120CCE020CA5B7
:0A0985008F288D298B2A8A2B892CDC
:10098F00120CC7AF28120AD6120C01AF29120AD6C1
:10099F00120C01120CAEE5284401FF120AD6120CFC
:1009AF0001E4FDE52D14FFEDC39F5018120B91AB21
:1009BF002AAA2BA92C8D82758300EF12082B120CFB
:1009CF009A0D80DF120B91AB2AAA2BA92CAE050D25
:1009DF008E82758300EF12082B8D82758300E412CF
:0809EF00082B120CCE020CA52E
:100BB600D3EF9400EE940040167D7DEDD39400743F
:0F0BC60080948040031D80F3EF1F70E41E80E1D8
:010BD50022FD
:0E0C7400EFD394007480948040031F80F3221D
:100C620054696D65203D20000044617465203D207B
:020C7200000080
:1008D800750866E4F509750A2D120C827B377D23AD
:1008E8007F10120B0A7B147D067F0E120B387BFFDC
:1008F8007A0C7962120C4FC2A27B007A0079191225
:1009080009F77B007A007916120A427BFF7A0C7984
:1009180062120C4FAF197E00120B667F3A120CB7A9
:10092800AF1A7E00120B667F3A120CB7AF1B7E001F
:10093800120B667F20120CB77BFF7A0C796B120CB6
:100948004FAF167E00120B667F2D120CB7AF177EC5
:1009580000120B667F2D120CB7AF187E00120B66C3
:100968007F0D120CB77F0A120CB77F907E01120B15
:0D097800B6D2A27F907E01120BB60208FFDE
:090C2400900001EF12082BAF054E
:0E0C2D00EFC4540F75F00AA4FEEF540F2EFF13
:010C3B002296
:100C3C00EF75F00A84FEEF75F00A84EEC454F025CB
:020C4C00F0FFB7
:010C4E002283
:020B0A00AC033A
:100B0C00120C3C8F1CAF05120C3C8F1DAF04120C49
:100B1C003CAB07E4FD7FD0120C0BAB1D7D017FD0ED
:0C0B2C00120C0BAB1C7D027FD0020C0BE6
:020B3800AC030C
:100B3A00120C3CAB07AF05120C3C8F1CAF04120C15
:100B4A003C8F1D7D047FD0120C0BAB1C7D057FD022
:0C0B5A00120C0BAB1D7D067FD0020C0BB3
:0609F7008B1C8A1D891E05
:1009FD007D027FD0120BD68F1F7D017FD0120BD6BB
:100A0D008F20E4FD7FD0120BD6AD07AF1F120C2D3A
:100A1D00AB1CAA1DA91EEF120819AF20120C2DAB8D
:100A2D001CAA1DA91E120C24AB1CAA1DA91E9000E8
:050A3D0002EF02082B8E
:060A42008B1C8A1D891EB9
:100A48007D047FD0120BD68F1F7D057FD0120BD669
:100A58008F207D067FD0120BD6AD07AF1F120C2D4D
:100A6800AB1CAA1DA91EEF120819AF20120C2DAB42
:100A78001CAA1DA91E120C24AB1CAA1DA91E90009D
:050A880002EF02082B43
:0C0C8200759850758920758DFDD28E226A
:080CB7008F993099FDC29922CA
:070CBF003098FDAF99C298C7
:010CC600220B
:100C4F00120800FF600C120CB7740129F9E43AFA8C
:030C5F0080EE2202
:040B6600AB07AA0629
:100B6A007C007D0A12084DEF2430F51CAE02AF035B
:100B7A007C007D0A12084DED2430F51DE4F51EFBBC
:070B8A007A00791C020C4FF8
:03000000020C8E61
:0C0C8E00787FE4F6D8FD75812D0208D8AF
:10080000BB010689828A83E0225002E722BBFE02F6
:09081000E32289828A83E4932229
:10081900BB010689828A83F0225002F722BBFE01BE
:02082900F322B8
:10082B00F8BB010DE58229F582E5833AF583E8F003
:10083B00225006E92582C8F622BBFE05E92582C8AF
:02084B00F22297
:10084D00C2D5EC30E709B2D5E4C39DFDE49CFCEEC6
:10085D0030E715B2D5E4C39FFFE49EFE120883C3B3
:10086D00E49DFDE49CFC800312088330D507C3E4AE
:06087D009FFFE49EFE2235
:10088300BC000BBE0029EF8DF084FFADF022E4CC59
:10089300F875F008EF2FFFEE33FEEC33FCEE9DEC22
:1008A300984005FCEE9DFE0FD5F0E9E4CEFD22ED68
:1008B300F8F5F0EE8420D21CFEADF075F008EF2FB2
:1008C300FFED33FD4007985006D5F0F222C398FDA3
:0508D3000FD5F0EA2240
:00000001FF
